:020000040800F2
:10000000FCFF0020B5270000992700009927000079
:1000100099270000992700009927000099270000E0
:1000200099270000992700009927000099270000D0
:1000300099270000992700009927000099270000C0
:1000400099270000992700009927000099270000B0
:1000500099270000992700009927000099270000A0
:100060009927000099270000992700009927000090
:100070009927000099270000992700009927000080
:100080009927000099270000992700009927000070
:100090009927000099270000992700009927000060
:1000A0009927000099270000992700009927000050
:1000B0009927000099270000992700009927000040
:1000C0009927000099270000992700009927000030
:1000D0009927000099270000992700009927000020
:1000E0009927000099270000992700009927000010
:1000F0009927000099270000992700009927000000
:1001000099270000992700009927000099270000EF
:1001100099270000992700009927000099270000DF
:1001200099270000992700009927000099270000CF
:1001300099270000992700009927000099270000BF
:1001400099270000992700009927000099270000AF
:1001500081B0194900EA0101084600220EE004209E
:1001600022E0082020E010201EE020201CE040209B
:100170001AE0802018E040F2001015E00F49884294
:10018000EDD00F498842ECD00E498842EBD00E49A1
:100190008842EAD00D498842E9D00D498842E8D02A
:1001A0000C498842E7D010460B49096841EA000231
:1001B00009490A6001B0704700FCFFFF00080140D8
:1001C000000C0140001001400014014000180140E3
:1001D000001C0140002001401810024081B0CDF801
:1001E00000E08CB21546774B00EA03031E46184622
:1001F000FFF7AEFFB4F1FF0F0CD1734B9D4203D15B
:100200004FF033333360D9E0422D03D14FF0443304
:100210003360D3E04FF6FF739C4214D16A4B9D428A
:1002200007D14FF033333360341D4FF03333236045
:10023000C4E0422D07D14FF044333360341D4FF0FA
:1002400044332360BAE00021002005F001030BB124
:1002500000211DE005F0020333B105F4C0730BB1BA
:10026000082100E0042113E005F0040333B105F098
:1002700020030BB1042100E0002109E005F0080390
:1002800033B105F020030BB10C2100E00821FFE79A
:100290004E4B05EA03030BB1032009E005F400739C
:1002A0000BB1022004E005F480630BB10120FFE7ED
:1002B00005F00C030BB10143FFE704F0FF039BB211
:1002C000002B3BD0376800201FFA84F832462E46B8
:1002D00008282CD24FF0010303FA00F408EA0403C3
:1002E000A34222D185004FF00F03AB40DB4307EA66
:1002F000030401FA05F344EA03031D4606F481737F
:10030000B3F5817F05D102F214044FF0010383405D
:10031000236006F08203822B05D102F210044FF015
:100320000103834023602F46FFE7401CD0E717609E
:100330001FFA88F00F463146164602E00F4629465E
:10034000A0B2B0F1FF0F39D9331DD3F800800022DD
:10035000082A30D202F208044FF0010303FA04F431
:1003600000EA0403A34224D195004FF00F03AB40F1
:10037000DB4308EA030807FA05F348EA030801F437
:100380008173B3F5817F07D106F2140502F20804E8
:100390004FF00103A3402B6001F08203822B07D1B1
:1003A00006F2100502F208044FF00103A3402B608F
:1003B000FFE7521CCCE7331DC3F80080DDF800E0F6
:1003C00001B0704700FCFFFF14000800000808009F
:1003D00081B000F218010A68C2F3400181F0010106
:1003E000C9B2C8B201B0704781B000F214010A6806
:1003F00000F218010968090442EA0101084601B047
:100400007047FFFF81B00249086001B0704700BF2C
:10041000A481224281B00249086001B0704700BF48
:10042000A081224281B00249086001B0704700BF3C
:100430009401214281B00249086001B0704700BFB9
:100440009C81214281B00249086001B0704700BF21
:100450009881214281B00249086001B0704700BF15
:10046000A881224281B00249086001B0704700BFF4
:10047000B481224281B00249086001B0704700BFD8
:100480008801224281B00249086001B0704700BF74
:100490009001214281B00249086001B0704700BF5D
:1004A000A801224281B00249086001B0704700BF34
:1004B0008001214281B00249086001B0704700BF4D
:1004C000B001224281B00249086001B0704700BF0C
:1004D000AC01224281B00249086001B0704700BF00
:1004E0009881214281B00249086001B0704700BF85
:1004F0009481224281B00249086001B0704700BF78
:100500009881224281B0CDF800E00B46FFF76CFFE6
:1005100000EA03029A4240F2000200D10122D0B266
:10052000DDF800E001B0704781B0CDF800E04FF099
:1005300000021949884207D118490B6818490A680E
:1005400018490A601C460BE01749884207D1174931
:100550000B6817490A6813490A601C4600E01446F4
:1005600014490C6003461846FFF732FF70B9114971
:10057000096851B12CB905200A4C2468A047002015
:1005800005E0611E08460446FFE7ECE70120DDF8C0
:1005900000E001B0704700BF00540040840000201C
:1005A000D8000020D400002000580040880000201F
:1005B000DC0000208C00002081B00249086001B0FE
:1005C000704700BF9C81214281B00249086001B0A0
:1005D000704700BFAC81224281B00249086001B07F
:1005E000704700BFA801224281B00249086001B0F3
:1005F000704700BFB881224281B00249086001B053
:10060000704700BF8C01224281B00249086001B0EE
:10061000704700BFB081224281B00249086001B03A
:10062000704700BFB001224281B00249086001B0AA
:10063000704700BFAC01224281B00248006801B09F
:10064000704700BFD000002083B0CDF800E000F07C
:10065000FF031A09104603F00F02134614E0194A6B
:1006600002921FE0184A02921CE0184A029219E016
:10067000174A029216E0174A029213E0164A0292B3
:1006800010E0164A02920DE00028E8D00128E9D0D7
:100690000228EAD00328EBD00428ECD00528EDD0BE
:1006A0000628EED0012212B29A40ADF8042002983A
:1006B0000A46BDF80410FFF791FDDDF800E003B035
:1006C000704700BF00080140000C014000100140CD
:1006D0000014014000180140001C014000200140AE
:1006E00082B0CDF800E0034619460191FFF7A4FF60
:1006F00040F2E83100FB01F201990A601F490978D4
:10070000C1F30311C8B21E4909180878C0B21A1DF6
:100710001968C140116019490988C1F3022188B2E2
:10072000174909180878C0B203F20802191D0968B0
:10073000C140116011490988C1F3C22188B2104932
:1007400009180878C0B203F20C02191D0968C140EB
:1007500011600A490988C1F3813188B20949091831
:100760000978C8B203F2100203F20C010968B1FB68
:10077000F0F11160DDF800E002B0704704100240B3
:10078000BC2B00000C24000083B0CDF800E0034631
:100790004FF0000026498B4206D126490C682649B5
:1007A0000A6826490A600BE025498B4207D1254992
:1007B000086825490A6821490A60044600E00446A1
:1007C00022490C60019402931846FFF7ADFE029B8C
:1007D000019C10B94FF6FF7025E00122196862F301
:1007E0000821196003F214010A68C2F3402111B113
:1007F0004FF6FF7017E025461C4615492046FFF7C7
:1008000081FE78B91149096859B135B906200B4CF8
:100810002468A0474FF6FF7005E0691E08460546AC
:10082000FFE7EAE70020DDF800E003B0704700BF13
:100830000054004084000020D8000020D400002094
:100840000058004088000020DC0000208C000020C0
:100850000100030081B0CDF800E0012252B23E4910
:100860000A6000F268010B686FF0006103EA0102A0
:10087000144603F00061C90E0B4602F00041B1F1CD
:10088000004F02D135490A6801E035490A6804F48D
:100890007021090C0E464FF6FF7104EA01010D4666
:1008A00004F44011B1F5401F0DD16FF0706102EA00
:1008B00001010E462A490A686FF070610A40284912
:1008C0000A60324616E004F48011B1F5801F09D1A8
:1008D0004FF00301B140C94302EA010141F07061E8
:1008E0000A4607E0610D090105FA01F1C9430A4012
:1008F00042F070622BB1610D090105FA01F10A4362
:10090000FFE704F00041B1F1004F02D113490A6042
:1009100001E013490A6040F2000A81464FEA8A0169
:1009200009EB01010968B1F1FF3F10D009F1340171
:100930004FEA8A03C91809680A4609EB03010968E6
:1009400008461146FFF780FE0AF1010AE6E7DDF8E6
:1009500000E001B0704700BF000342421C000140AC
:100960000400014082B0CDF800E0029E4FF0000587
:10097000564CA04206D1564C2768564C2568564C1A
:1009800025600AE0554CA04206D1554C2768554CCD
:100990002568514C256000E02F46534C276000F23B
:1009A00010054C00A4B22C60B94607469046354667
:1009B0001E464E493846FFF7A5FD88B94A4C2468C3
:1009C0006CB1B9F1000F06D10420434C2468A04754
:1009D0004FF6FF7076E0A9F101008146FFE7E8E7F6
:1009E0000020019729463746019E7C1EA04226D250
:1009F00006F2100508EB000424782C603A4CD4F879
:100A0000009082460D463A493046FFF77BFD88B993
:100A1000354C24686CB1B9F1000F06D104202E4C7E
:100A20002468A0474FF6FF704CE0A9F10100814611
:100A3000FFE7E8E70AF1010420462946D5E706F278
:100A4000100508EB000424782C60274C27680D461D
:100A500028493046FFF756FD70B9234C246854B13D
:100A600037B904201C4C2468A0474FF6FF7029E0DA
:100A7000781E0746FFE7EBE7012D05D10125346815
:100A800065F3492434601CE00125346865F30824CB
:100A90003460154C2768354617492846FFF732FD64
:100AA00078B9114C24685CB137B904200A4C246829
:100AB000A0474FF6FF7005E07C1E20460746FFE783
:100AC000EAE70020DDF800E002B070470054004083
:100AD00084000020D8000020D400002000580040EE
:100AE00088000020DC0000208C000020820007002D
:100AF00080000700840007000100030082B0CDF8E9
:100B000000E0CFB201469846029B4FF000064FF03E
:100B10000005C44CA14207D1C34CD4F80090C34C8B
:100B20002568C34C25600BE0C24CA14207D1C24CE2
:100B30002068C24C2568BE4C2560814600E0A9466D
:100B4000BF4CC4F80090F4E101F210057C00A4B29F
:100B500044F00104A4B22C60019616464F46019A57
:100B600001F214042568C5F3400464B9B44C246848
:100B700044B127B90320AE4C2468A047E2E1781EB7
:100B80000746FFE7ECE700250C6865F38A240C6054
:100B900001F21404206800BF01F218042468240440
:100BA00040EA04042046012B05D101250C6865F3B9
:100BB00049240C6004E001250C6865F308240C60EE
:100BC0009F4C25689146984637460E469D493046CB
:100BD000FFF798FC68B99A4C24684CB125B90320FA
:100BE000934C2468A047ADE16C1E20460546FFE704
:100BF000ECE707EB090506F2100424682C70B8F145
:100C0000010F13D18E4C216830460568C5F340248E
:100C10005CB98B4C24683CB121B90320844C246816
:100C2000A0478FE1491EFFE7EFE712E0844C2168FF
:100C300030460568C5F300245CB9814C24683CB19A
:100C400021B903207A4C2468A0477BE1491EFFE7C5
:100C5000EFE777E101250C6865F38A240C60012534
:100C60000C6865F3CB240C6001F210057C00A4B283
:100C700044F00104A4B22C604F4601F2140425682C
:100C8000C5F3400464B96E4C246844B127B903200D
:100C9000674C2468A04755E1781E0746FFE7ECE75C
:100CA00001F21404206800BF01F21804246824042F
:100CB000204300250C6865F38A240C60604C27688B
:100CC00001F214042568C5F3800464B95C4C2468FF
:100CD00044B127B90320564C2468A04732E1781E5E
:100CE0000746FFE7ECE7012B05D101250C6865F30A
:100CF00049240C6004E001250C6865F308240C60AD
:100D0000951901F2100424682C70741C151901F255
:100D1000100424682C70012B14D1494C22680D68F2
:100D2000C5F3402464B9464C246844B122B9032079
:100D30003F4C2468A04705E1501E0246FFE7EEE75E
:100D4000084613E03E4C22680D68C5F3002464B9E0
:100D50003B4C246844B122B90320354C2468A04799
:100D6000F0E0501E0246FFE7EEE708460025046863
:100D700065F3CB240460E5E001250C6865F38A2463
:100D80000C6001F210057C00A4B244F00104A4B28E
:100D90002C604646C846894617461D462A4948469D
:100DA000FFF7B0FB78B9264C24685CB1B8F1000FAE
:100DB00004D103201E4C2468A047C3E0A8F1010021
:100DC0008046FFE7EAE70021A8464A46B1463B468F
:100DD000A9F10304A14222D2194C25688A4617467C
:100DE0001E4618493846FFF78DFB60B9144C24683D
:100DF00044B125B903200E4C2468A047A2E0681E28
:100E00000546FFE7EDE706EB0A0507F21004246844
:100E10002C700AF10104214633463A46D8E7084CC3
:100E200000F014B80054004084000020D8000020D6
:100E3000D40000200058004088000020DC00002082
:100E40008C0000204000030002000300276801938B
:100E50000B4616464246019906F214042568C5F36E
:100E6000800464B9394C246844B127B90320384C54
:100E70002468A04766E0781E0746FFE7ECE70025F8
:100E8000346865F38A243460CD1806F210042468AF
:100E90002C70581C2D4C23681746024606F2140489
:100EA0002568C5F3800464B9284C246844B123B98B
:100EB0000320274C2468A04744E0581E0346FFE760
:100EC000ECE7012F07D10125346865F3492434602C
:100ED0001046324621E00125346865F30824346069
:100EE0001A4CD4F8008017460D461A493046FFF7D1
:100EF00009FB78B9154C24685CB1B8F1000F04D136
:100F00000320134C2468A0471CE0A8F10100804690
:100F1000FFE7EAE72946324638460D1802F2100488
:100F200024682C70441C0D1902F2100424682C70E3
:100F300008E0B8F1010F3FF407AEB8F1020F3FF43B
:100F400089AE19E7DDF800E002B070478C000020A0
:100F5000D40000200100030081B00168C1F38010BB
:100F600001B0704781B00268C2F3401101B9FAE7DD
:100F7000011D096888B201B07047FFFF81B00168A8
:100F8000C1F3401001B0704781B0CDF800E00348D4
:100F9000FFF7F4FFDDF800E001B0704700440040C7
:100FA00081B0CDF800E00348FFF7DCFFDDF800E09A
:100FB00001B070470044004081B0CDF800E0034824
:100FC000FFF7CAFFDDF800E001B0704700440040C1
:100FD00081B0CDF800E00348FFF7D0FFDDF800E076
:100FE00001B070470048004081B0CDF800E00348F0
:100FF000FFF7B8FFDDF800E001B07047004800409F
:1010000081B0CDF800E00348FFF7BEFBDDF800E05B
:1010100001B070470058004088B0CDF800E00E469F
:10102000554B98420DD1012464B2544B1C60544C72
:10103000544B1C60544C554B1C60554C554B1C601C
:101040000FE0554B98420CD1012464B2534B1C6005
:10105000534C4C4B1C60534C4C4B1C60524C4D4BF6
:101060001C60019602901046FFF7F4FB0298019E67
:10107000031D1B689CB26FF03F0304EA03039DB29B
:1010800003AB01901846FFF72BFB0198059F059CC9
:10109000464BB4FBF3F399B29BB245EA0304A4B206
:1010A000031D1C600024036864F300030360002236
:1010B0003F4B9E4212D87300B7FBF3F4A4B2042C4A
:1010C00002D204231C46FFE742EA04039AB200F26C
:1010D00020044B1C9BB2236091B23FE0032306FB2C
:1010E00003F4B7FBF4F31FFA83F8192306FB03F5A7
:1010F000B7FBF5F31FFA83F908FB04F409FB05F3CA
:101100003C1BFB1A9C4205D203237343B7FBF3F449
:10111000A4B206E019237343B7FBF3F4A4B244F47A
:10112000804440F6FF7304EA030313B944F001045A
:10113000FFE744F400439BB21A4392B200F2200549
:1011400040F22C1301FB03F4A4B240F2E833B4FBE9
:10115000F3F39BB25B1C9BB22B6091B200F21C03B9
:101160001960002303600124036864F30003036033
:10117000DDF800E008B0704700540040D40342425C
:1011800099150000E000002099120000E400002002
:1011900015120000E800002000580040D803424229
:1011A00001100000751200005112000040420F00B3
:1011B000A086010081B0CDF800E00348FFF7D2FE21
:1011C000DDF800E001B070470038014081B0CDF893
:1011D00000E00348FFF7C0FEDDF800E001B0704713
:1011E0000038014081B0CDF800E00348FFF7C6FEAB
:1011F000DDF800E001B070470038014081B0CDF863
:1012000000E00348FFF7A8FEDDF800E001B07047FA
:101210000048004081B0CDF800E008B413460A460B
:10122000C1B20448FFF79EFB01B0DDF800E001B059
:10123000704700BF0054004081B0CDF800E0034883
:10124000FFF78AFEDDF800E001B070470050004073
:1012500081B0CDF800E008B413460A46C1B2044894
:10126000FFF780FB01B0DDF800E001B0704700BF80
:101270000058004081B0CDF800E008B413460A469B
:10128000C1B20448FFF73AFC01B0DDF800E001B05C
:10129000704700BF0058004081B0CDF800E008B4AE
:1012A00013460A46C1B20448FFF728FC01B0DDF836
:1012B00000E001B0704700BF0054004081B0CDF89D
:1012C00000E00348FFF75AFEDDF800E001B0704788
:1012D000004C004081B0CDF800E00348FFF742FE2B
:1012E000DDF800E001B07047004C004081B0CDF85F
:1012F00000E00348FFF730FEDDF800E001B0704782
:10130000004C004081B0CDF800E00348FFF736FE06
:10131000DDF800E001B070470050004081B0CDF82A
:1013200000E00348FFF71EFEDDF800E001B0704763
:101330000050004089B0CDF800E0834698B28C465A
:10134000BDF824100A9E04ACADF80410ADF80800F6
:101350002046FFF7C5F9BDF80800BDF80410644C3D
:10136000A34512D101256DB2624C2560624D634CDC
:101370002560634D634C2560634D644C2560644D6E
:10138000644C2560079C039456E0634CA34512D13E
:1013900001256DB2614C2560614D584C2560614D51
:1013A000584C2560604D594C2560604D594C256066
:1013B000069C039440E05E4CA34512D101256DB21A
:1013C0005C4C25605C4D4D4C25605C4D4D4C256062
:1013D0005B4D4E4C25605B4D4E4C2560069C039446
:1013E0002AE0594CA34512D101256DB2574C256016
:1013F000574D424C2560574D424C2560564D434C4D
:101400002560564D434C2560069C039414E0544CD3
:10141000A34511D101256DB2524C2560524D374C78
:101420002560524D374C2560514D384C2560514D4B
:10143000384C2560069C0394ADF80410ADF8080004
:101440003046FFF707FABDF80800BDF804100BF1AD
:10145000100500242C600BF110052C680C432C6047
:101460000BF10C0500242C6018B140F4806080B2B0
:10147000FFE70BF10C052C6804432C600BF10C0604
:101480000125346865F34D3434600BF10C060125F9
:10149000346865F3C30434600BF10C06012534682D
:1014A00065F3820434600BF1140500242C60039D65
:1014B000192465434FEA8C04B5FBF4F76424B7FBA9
:1014C000F4F42601350964246C433C1B240104F226
:1014D00032056424B5FBF4F404F00F0446EA040476
:1014E0000BF10805A4B22C60DDF800E009B07047EC
:1014F0000038014038034242B1150000EC000020E2
:10150000B5110000F0000020E5110000F4000020FB
:10151000CD110000F800002000440040C403424206
:1015200005170000A10F0000890F0000B90F00008F
:1015300000480040C80342423D170000E90F000088
:10154000D10F0000FD110000004C0040CC034242CE
:1015500099160000D5120000BD120000ED12000027
:1015600000500040D0034242211700001D1300002C
:10157000051300003912000081B0ADF800100146DB
:10158000BDF800000B68C3F3C01202B9FAE70A1DE8
:10159000106001B07047FFFF81B0CDF800E0034854
:1015A000FFF7F2F8DDF800E001B0704700540040AA
:1015B00081B0CDF800E081B20348FFF7DDFFDDF830
:1015C00000E001B0704700BF0038014082B0CDF8A4
:1015D00000E040F20004ADF80440054C2468A04748
:1015E000BDF90440044320B2DDF800E002B07047CA
:1015F0000801002081B0CDF800E0019D2C4610B418
:1016000008B493B28AB201460348FFF793FE02B0D2
:10161000DDF800E001B070470048004081B0CDF82F
:1016200000E0019D2C4610B408B493B28AB2014682
:101630000348FFF77FFE02B0DDF800E001B070471D
:101640000044004081B0CDF800E0019D2C4610B46C
:1016500008B493B28AB201460348FFF76BFE02B0AA
:10166000DDF800E001B070470038014082B0CDF8ED
:1016700000E040F20004ADF80440064C2468A047A6
:10168000BDF9041041EA000000B2DDF800E002B04C
:10169000704700BF0401002081B0CDF800E081B2A6
:1016A0000348FFF769FFDDF800E001B0704700BFB5
:1016B000004C004081B0002808BF0FE002B54FF099
:1016C0009E0202D4521E4000FCD580302CBF521C1A
:1016D0004000400A40EAC250BDE8024001B07047F5
:1016E00082B0CDF800E040F20004ADF80440044CB4
:1016F0002468A047BDF90400DDF800E002B070479F
:101700000C01002081B0CDF800E081B20348FFF762
:1017100033FFDDF800E001B0704700BF0044004037
:1017200081B0CDF800E081B20348FFF725FFDDF876
:1017300000E001B0704700BF0050004081B0CDF81C
:1017400000E081B20348FFF717FFDDF800E001B0C9
:10175000704700BF0048004081B0CDF800E00A4665
:1017600001460348FFF758FCDDF800E001B0704780
:101770000054004081B0FAB590EA02064CBF4FF029
:1017800000464FF000064FEA00214FEA40031B0ECF
:1017900012BF41F000414FF000002CE0FF2B26D09B
:1017A0004FEA02244FEA42052D0E12BF44F00044D6
:1017B0004FF000001FE0FF2D19D05B19A1FB04546E
:1017C000002C5CBF64005B1E803424BF5B1C64087B
:1017D0007E3BDCBF4FF000000DE0FF2B07D24FEA4D
:1017E000142030F4000040EAC350304303E0FF27E8
:1017F000FF0546EA0700BDE8FA4001B07047FFFF69
:1018000081B0026806490A60011D0A6805490A603C
:1018100000F208010A6804490A6001B0704700BF7D
:1018200004010020080100200C01002082B0CDF846
:1018300000E04FF0010400238DF80410C1B29DF8C0
:101840000400834203D24C435B1CDBB2F9E7204621
:10185000FFF730FFDDF800E002B0704781B0FAB565
:1018600090EA02064CBF4FF000464FF0000601021E
:1018700043001B0E12BF41F000414FF000003BE05F
:10188000FF2B35D05FEA02245FEA42055FEA156567
:1018900011BF44F000444FF0FF4030432CE0FF2DD7
:1018A00026D05B1B0020202764084908A14240EB9A
:1018B000000028BF091B7F1E04D0002918BF490063
:1018C000F4D1B84010F0004F04BF4000B3F1010361
:1018D00080302CBF5B1C40007F33DCBF4FF000002A
:1018E0000AE0FF2B04D2400A40EAC350304303E031
:1018F000FF27FF0556EA0700BDE8FA4001B0704730
:1019000081B006B54FEA40024FEA12627F3A44BF07
:101910004FF0000011E0D2F11F0209D94FEA002177
:1019200041F00041D14000284CBF4842084604E045
:1019300000284FF0004058BF401EBDE8064001B0EF
:101940007047FFFF81B082F000422DE9FA414FEA73
:1019500002244FEA42052D0E04D1002C18BF4FF08F
:1019600000006CE044F00044FF2D5FD04FEA940487
:10197000002A48BF64424FEA00214FEA40031B0E91
:1019800005D1002914BF4FF00000104657E041F088
:101990000041FF2B4BD04FEA9101002848BF49423C
:1019A0005E1B41BF0F4621463C46764248BF2B4650
:1019B000192E47BF44FA06F7C9194FF0000803E093
:1019C000C6F11C0704FA07F8002904BF4FF0000015
:1019D00035E046BF49424FF001074FF00007A3F141
:1019E00001034900FBD511F080040DD001F0200562
:1019F00048EA0508803128BF5B1C01F0400458EA22
:101A0000040808BF21F480719B1CDCBF4FF000006C
:101A100015E0FF2B0DD221F0FF014FEA41014FEA03
:101A2000512040EAC35040EAC77008E010464FEA30
:101A3000D0774FEAC777FF204FEAC0503843BDE860
:101A4000FA4101B07047FFFF84B0CDF800E0029189
:101A50008DF80C208DF80400FFF708FE01AC0A4B4E
:101A60001B7801222146D8B20023FFF7AFFD064BB9
:101A70001B789DF80C200299D8B20123FFF730FEA5
:101A8000DDF800E004B070479100002081B001B0A3
:101A90007047FFFF81B001780A0292B2411C0978B9
:101AA00042EA010188B201B07047FFFF81B00346EE
:101AB00040F200041A8840F6FF7102EA0101198021
:101AC00003F20E020021118000201A46102833D2A2
:101AD00000F00101C9B201290AD14108C9B2490087
:101AE0005118098801F0FF0189B24C40A4B20AE004
:101AF0004108C9B2490051180988090A89B284EA23
:101B000001018BB29CB208230092C2B20098002B54
:101B10000ED904F4004189B229B16400A4B284F45E
:101B20004054A4B201E06400A4B25B1EDBB2EEE755
:101B3000511C0246C8B2C9E7210B89B201F00F015E
:101B4000C8B201B07047FFFF81B002780F490A6048
:101B50000E4909680A020D490A60411C0A780B49BE
:101B6000096841EA020209490A60084909680A024B
:101B700006490A60811C0A780449096841EA0202A0
:101B800002490A600149086801B070472801002035
:101B900081B0CDF800E0016808460449FFF7DCFD9C
:101BA0000020DDF800E001B0704700BFF02A00001F
:101BB00081B04DF2BF47C0F201077F1EFDD100BFCB
:101BC00000BF00BF00BF00BF01B0704781B0CDF8BB
:101BD00000E0016808460449FFF7BEFD0020DDF87B
:101BE00000E001B0704700BFF02A000081B0CDF8DE
:101BF00000E0094902B440F2000340F2000240F262
:101C00000001FFF71FFD01B0044A05490A600020EA
:101C1000DDF800E001B07047AC290000B11500000C
:101C2000CC00002081B0CDF800E0094902B440F2B8
:101C3000000340F2000240F20001FFF7DBFC01B0BC
:101C4000044A05490A600020DDF800E001B0704751
:101C5000842A00003D170000CC00002081B010B5A0
:101C6000904208BF2AE040EA02044FEA4404002CF4
:101C700008BF23E0440004D1944201D4A41C012CE9
:101C80001CE04FEA40044FEA1464FF2C0AD14FEAEB
:101C900042044FEA1464FF2C04D14FEAD274B4EB2F
:101CA000D0340BE0002A06D4002802DC0024012CEA
:101CB00004E0904202E0002848BF8242BDE81040A4
:101CC00001B0704781B00091014600980B461C4658
:101CD0005A1C15460346421C10461A782270227878
:101CE0000AB12B46F3E7084601B0704781B0CDF842
:101CF00000E0094902B440F2000340F2000240F261
:101D00000001FFF78BFC01B0044A05490A6000207E
:101D1000DDF800E001B07047182A00000517000048
:101D2000CC00002082B0CDF800E08DF80400FFF771
:101D30009DFC01AA054909780123C8B21146012278
:101D4000FFF744FCDDF800E002B07047910000208E
:101D500081B02DE9FA414FEA02244FEA42052D0EE7
:101D600004D1002C18BF4FF000006CE044F0004498
:101D7000FF2D5FD04FEA9404002A48BF64424FEA27
:101D800000214FEA40031B0E05D1002914BF4FF07C
:101D90000000104657E041F00041FF2B4BD04FEAC6
:101DA0009101002848BF49425E1B41BF0F462146B2
:101DB0003C46764248BF2B46192E47BF44FA06F7E9
:101DC000C9194FF0000803E0C6F11C0704FA07F830
:101DD000002904BF4FF0000035E046BF49424FF0F4
:101DE00001074FF00007A3F101034900FBD511F0F3
:101DF00080040DD001F0200548EA0508803128BF95
:101E00005B1C01F0400458EA040808BF21F480710B
:101E10009B1CDCBF4FF0000015E0FF2B0DD221F022
:101E2000FF014FEA41014FEA512040EAC35040EA26
:101E3000C77008E010464FEAD0774FEAC777FF2017
:101E40004FEAC0503843BDE8FA4101B07047FFFF88
:101E500081B0002808BF19E006B554BF0146D0F193
:101E600000014FF09E0202D4521E4900FCD5803181
:101E70002CBF521C49004FEA512141EAC2510028AF
:101E80004CBF41F000400846BDE8064001B0704735
:101E900081B0CDF800E0094902B440F2000340F2FD
:101EA000000240F20001FFF7B9FB01B0044A054906
:101EB0000A600020DDF800E001B07047182A000039
:101EC00005170000CC00002081B0CDF800E00178BB
:101ED000CCB2A0B2034C2468A0470020DDF800E09B
:101EE00001B07047CC00002086B0CDF800E0664815
:101EF0000078FFF717FFFFF75BFE02A803220146F9
:101F00000020FFF7A1FD02A8FFF71EFE5F49086051
:101F100008210220FFF78AFC03905D480088FFF744
:101F2000C9FB039AFFF726FC039058480068FFF7A7
:101F3000C1FB039AFFF706FDFFF7E2FC5549086075
:101F400017210220FFF772FC039053480088FFF727
:101F5000B1FB039AFFF782FC03904E480068FFF73D
:101F600077FF039AFFF706FC4C4AFFF7F1FEFFF7F5
:101F7000C7FC4B4908604B480078FFF7D3FEFFF7DA
:101F800017FE02A8032201460020FFF75DFD02A80C
:101F9000FFF7DAFD444908600F210220FFF746FCF5
:101FA000039042480088FFF785FB039AFFF7E2FBA6
:101FB0000490384801683E4800884843039008214F
:101FC0000220FFF733FC039903900846FFF740FF18
:101FD000039AFFF743FC049AFFF7BAFE03903248D6
:101FE0000068FFF767FB039AFFF7C4FB0490152115
:101FF0000220FFF71BFC03900498019103990A4605
:10200000FFF72CFC0199059010210220FFF70EFC30
:10201000039028480088FFF74DFB039AFFF7AAFBBF
:1020200004901C4801682448008848430390072115
:102030000220FFF7FBFB039903900846FFF708FF18
:10204000039AFFF70BFC049AFFF782FE03900598B2
:10205000019103990A46FFF775FC019904900D213F
:102060000220FFF7E3FB03900498019103990A46CD
:10207000FFF7F4FB0199FFF743FC10490860DDF816
:1020800000E006B0704700BF830000201C01002064
:102090001601002020010020180100200000FA4451
:1020A000FC0000208200002024010020CA00002043
:1020B0001201002010010020140100200001002066
:1020C00081B0CDF800E0804689460B4A1068FFF7E2
:1020D000BFFE0A4AFFF7C2FBC8F80000084A1068B2
:1020E000FFF7B6FE074AFFF7B9FBC9F80000DDF8B5
:1020F00000E001B0704700BFFC0000200000C842B3
:10210000000100200000204182B0CDF800E002462E
:102110000C460020002149B20192019AB2F1FF3F22
:1021200006D1714A11462046FFF7CCFD0320D7E0C7
:10213000012501AAD21C127802F08002D2B272B13B
:1021400001AAD31C1A7882F080021A706A1CD3B2DA
:102150002D222270621C1446DEB2A24601E0A24685
:10216000EEB2019A32B9614A11465046FFF7AAFD14
:102170000020B5E0019AB2F1FF4F06D15C4A11464A
:102180005046FFF79FFDF0B2AAE05FFA80F94FFAE0
:1021900081F8019A4FF07E50FFF760FD40F2000099
:1021A00000DD012048B1019A5248FFF7E3FA01909F
:1021B000A8F101084FFA88F8EBE7019A4D48FFF7BC
:1021C0004DFD40F2000000DC012048B1019A4A4870
:1021D000FFF7D0FA019008F101084FFA88F8ECE710
:1021E000019A5200019201AAD21C12787F3AD0B211
:1021F00001AAD31C01221A70019A8240019201AAFD
:10220000D21C127830328AF800200AF10100B8F1AD
:10221000010F06DBB8F1060F03DC05465FFA89F112
:1022200003E02E220270451C012106204FFA88F49B
:1022300000B301AAD31C00221A70019A9300019ADC
:10224000D2180192019A5200019201AAD21C12786E
:1022500030322A706D1C51B9621E52B253B222B98B
:102260002E222A706D1C0121FFE75CB2FFE7401EA1
:10227000C0B2DDE7294660B24A1E1278302A01D189
:10228000491EF9E74A1E12782E2A01D1491EFFE79E
:1022900010B365220A70491C002806DA2D220A7044
:1022A000491C424250B243B200E043B2D8B2DAB263
:1022B000092A07D90A22B0FBF2F2D2B230320A70F0
:1022C000491CFFE70A23B0FBF3F203FB1202D2B270
:1022D00030320A70481C00E00846002202700020DC
:1022E000DDF800E002B07047780000207C0000209C
:1022F0007E00002000002041CDCCCC3D81B0CDF847
:1023000000E011E00846FFF78DFC16E00846FFF7F5
:10231000EDFC12E00846FFF769FC0EE00846FFF707
:10232000B7FD0AE0012008E00028EBD00128EDD03D
:102330002028EFD03028F1D0F4E7DDF800E001B03C
:102340007047FFFFA086010081B041F6FF27C0F271
:10235000B7077F1EFDD100BF00BF00BF00BF00BF99
:1023600001B0704781B0CDF800E00446054B1A700B
:102370000846FFF745FA2046FFF788FBDDF800E046
:1023800001B070479100002081B0CDF800E01E2020
:10239000FFF7C8FCDDF800E001B0704783B0CDF86E
:1023A00000E0024610460D228DF808200A228DF822
:1023B00009201FE0FFF788FD23E002782AB1019091
:1023C000FFF782FD0198401CF7E71AE002782AB176
:1023D0000190FFF779FD0198401CF7E702AA10462B
:1023E000FFF772FD0DF109021046FFF76DFD08E0E1
:1023F000062007E00029DDD00129DED00229E5D042
:10240000F6E70020DDF800E003B07047020406089C
:1024100081B044F67F77C0F212077F1EFDD100BF66
:1024200000BF00BF00BF00BF01B0704781B0CDF852
:1024300000E08B4609E05846FFF7AAFB0AE0584641
:10244000FFF7C4FB06E0012004E00028F3D00128D8
:10245000F5D0F8E7DDF800E001B0704781B0034A3D
:102460001070034A117001B0704700BF8200002055
:102470008300002086B0CDF800E001A802220146CA
:10248000A020FFF7E1FA01A8FFF704FB3A49088012
:1024900001A802220146A220FFF7D6FA01A8FFF701
:1024A000F9FA3649088001A802220146A420FFF764
:1024B000CBFA01A8FFF7EEFA3149088001A8022201
:1024C0000146A620FFF7C0FA01A8FFF7E3FA2D495D
:1024D000088001A802220146A820FFF7B5FA01A84A
:1024E000FFF7D8FA2849088001A802220146AA204D
:1024F000FFF7AAFA01A8FFF7CDFA2449088001A83E
:1025000002220146AC20FFF79FFA01A8FFF7C2FAAA
:102510001F4B18800DF10602174800881080911C8F
:10252000164800880880111D154800880880911DF4
:1025300014480088088002F20801134800880880C7
:1025400002F20A0111480088088002F20C011846C4
:10255000008808801046FFF7A9FAC1B20648008833
:10256000000B80B2814201D1002000E00120DDF8A3
:1025700000E006B0704700BF92000020CA000020B3
:10258000100100201201002014010020160100207B
:102590001801002081B01548006840F0010113487F
:1025A0000160134913480160104801681248014056
:1025B0000E4801600D4801686FF4802001400B480F
:1025C00001600C4801686FF4FE0001400948016099
:1025D000064801686FF0A0500140044801604FF0C8
:1025E00000010648016001B0704700BF00100240C2
:1025F0000000FFF004100240FFFFF6FE2C10024026
:1026000081B0CDF800E0762210491148FFF7AAFE0C
:10261000FFF7BAFEFFF798FE56214620FFF71EFF90
:10262000FFF728FF0B490870002804D10A4802214F
:10263000FFF7B4FE03E009480221FFF7AFFEFFF702
:10264000E7FEDDF800E001B0704700BFCC2B0000D2
:102650005C2B0000900000200000002018000020EB
:1026600081B0CDF800E00A4801460020FFF7DEFE09
:1026700042F280512020FFF741FE06480221FFF779
:102680008DFEFFF7C5FEDDF800E001B0704700BF2A
:10269000442300003300002081B0CDF800E0FFF7B4
:1026A00023FC1F491F48FFF70BFD1E4800681E4909
:1026B000FFF72AFD00211D4801701D480121FFF789
:1026C0006DFE01211848FFF769FE1A480221FFF745
:1026D00065FE134800681449FFF716FD00211648EF
:1026E000017016480121FFF759FE01210E48FFF73E
:1026F00055FE13480221FFF751FE12480221FFF751
:102700004DFE41F6FF27C0F2B7077F1EFDD100BF87
:1027100000BF00BF00BF00BFDDF800E001B07047A0
:10272000940000204C000020980000209E00002013
:1027300050000020600000209F0000206400002066
:10274000710000204900002081B04FF000094FF0D7
:10275000000CBDEB0A0F04DCBDEB0B0F01DBD44614
:10276000EA464BF8049BBBEB0A0FFAD1BCEB0A0F0D
:1027700005DDE246D9F800B00BF1040BF1E701B03A
:102780007047FFFF81B01CF8019B0BF8019BBBEB6E
:102790000A0FF8D101B0704781B0FEE701B0704771
:1027A00081B002490248016001B070474019010040
:1027B000D000002081B000F00FF800F04DFAFFF7D4
:1027C000EFFF00F009FAFFF74BFFFFF719FFFFF7E4
:1027D00063FFFCE7FEE7FFFF81B0CDF800E0464A6B
:1027E000464B474C47494BF68030814206D9464814
:1027F000006840F002014448016011E045F6C05015
:10280000814206D94048006840F001013E4801601D
:1028100006E03D4801686FF0070001403A4801605A
:10282000FFF7B8FE3948036039480460394802EAC6
:1028300000013948016002F0010040B119463648F4
:10284000006800F00200002800D1F8E700E0194617
:1028500002F4803040B10B462F48006800F400308D
:10286000002800D1F8E700E00B4602F0805068B184
:102870002948006840F080512748016026480068D8
:1028800000F00050002800D1F8E7FFE702F0806078
:1028900078B12148006840F080611F48016011460E
:1028A0001A461D48006800F00060002800D1F8E7D3
:1028B00001E011461A4601F0807070B116480068B8
:1028C00040F080711448016011461348006800F020
:1028D000007000B9F9E70A46FFE70C48006800F00D
:1028E0000C01900000F00C00814200D0F5E7DDF80B
:1028F00000E001B0704700BF8100010502841D00A7
:10290000440601004019010000200240041002406A
:102910002C100240FFFF0F0000100240202D2D2D33
:1029200020526561642050524F4D202D204F4B2185
:1029300021212000202D2D2D205265616420505230
:102940004F4D202D204552524F5221212120002051
:102950002D2D2D2053797374656D20496E69742077
:102960002D2D2D2000202000000000002054656D3A
:102970007065726174757265203A200020432000F2
:10298000205072657373757265203A2000206D4285
:10299000617220004E614E003000494E460048589A
:1029A000000000000000000000000000090000001E
:1029B0000A000000FFFFFFFF000000000000000011
:1029C0000000000000000000000000000000000007
:1029D00000000000000000000000000000000000F7
:1029E00018080000180000000000000000000000AF
:1029F00000000000000000000000000000000000D7
:102A000000000000000000000000000000000000C6
:102A10000000000004000000350000003600000047
:102A2000FFFFFFFF000000000000000000000000AA
:102A30000000000000000000000000000000000096
:102A40000000000000000000000000001808000066
:102A5000180000000000000000000000000000005E
:102A60000000000000000000000000000000000066
:102A70000000000000000000000000000000000056
:102A8000080000083800000039000000FFFFFFFFC9
:102A90000000000000000000000000000000000036
:102AA0000000000000000000000000000000000026
:102AB00000000000000000001808000018000000DE
:102AC0000000000000000000000000000000000006
:102AD00000000000000000000000000000000000F6
:102AE000000000000000000000000000300014089A
:102AF0001600000017000000FFFFFFFF00000000AD
:102B000000000000000000000000000000000000C5
:102B100000000000000000000000000000000000B5
:102B20000000000028080000280800000000000045
:102B30000000000000000000000000000000000095
:102B40000000000000000000000000000000000085
:102B500000000000000000000200000085040000EA
:102B6000750400006504000095040000C504000021
:102B7000B5040000A5040000550400000504000091
:102B8000150400004504000035040000FFFFFFFFAE
:102B9000FFFFFFFFFFFFFFFFFFFFFFFFFFFFFFFF45
:102BA000FFFFFFFFFFFFFFFFFFFFFFFFFFFFFFFF35
:102BB000FFFFFFFFFFFFFFFFFFFFFFFF0000000021
:102BC0000102030401020304060708099915000025
:102BD000151200009912000000B5DFF814B0DFF8FC
:102BE00014A0DFF814C0FFF7CDFD00BD704700BF93
:102BF00000000020900000201C290000FFFFFFFFC4
:102C0000FFFFFFFFFFFFFFFFFFFFFFFFFFFFFFFFD4
:102C1000FFFFFFFFFFFFFFFFFFFFFFFFFFFFFFFFC4
:102C2000FFFFFFFFFFFFFFFFFFFFFFFFFFFFFFFFB4
:102C3000FFFFFFFFFFFFFFFFFFFFFFFFFFFFFFFFA4
:102C4000FFFFFFFFFFFFFFFFFFFFFFFFFFFFFFFF94
:102C5000FFFFFFFFFFFFFFFF00B5DFF810B0DFF859
:102C600010A0FFF771FD00BD704700BF00000020FD
:102C70002C010020FFFFFFFFFFFFFFFFFFFFFFFF13
:00000001FF
